{
  "_format": "hh-sol-artifact-1",
  "contractName": "PixelPaws",
  "sourceName": "contracts/PixelPaws.sol",
  "abi": [
    {
      "inputs": [],
      "stateMutability": "nonpayable",
      "type": "constructor"
    },
    {
      "anonymous": false,
      "inputs": [
        {
          "indexed": true,
          "internalType": "address",
          "name": "owner",
          "type": "address"
        },
        {
          "indexed": true,
          "internalType": "address",
          "name": "approved",
          "type": "address"
        },
        {
          "indexed": true,
          "internalType": "uint256",
          "name": "tokenId",
          "type": "uint256"
        }
      ],
      "name": "Approval",
      "type": "event"
    },
    {
      "anonymous": false,
      "inputs": [
        {
          "indexed": true,
          "internalType": "address",
          "name": "owner",
          "type": "address"
        },
        {
          "indexed": true,
          "internalType": "address",
          "name": "operator",
          "type": "address"
        },
        {
          "indexed": false,
          "internalType": "bool",
          "name": "approved",
          "type": "bool"
        }
      ],
      "name": "ApprovalForAll",
      "type": "event"
    },
    {
      "inputs": [
        {
          "internalType": "address",
          "name": "to",
          "type": "address"
        },
        {
          "internalType": "uint256",
          "name": "tokenId",
          "type": "uint256"
        }
      ],
      "name": "approve",
      "outputs": [],
      "stateMutability": "nonpayable",
      "type": "function"
    },
    {
      "anonymous": false,
      "inputs": [
        {
          "indexed": false,
          "internalType": "uint256",
          "name": "_fromTokenId",
          "type": "uint256"
        },
        {
          "indexed": false,
          "internalType": "uint256",
          "name": "_toTokenId",
          "type": "uint256"
        }
      ],
      "name": "BatchMetadataUpdate",
      "type": "event"
    },
    {
      "anonymous": false,
      "inputs": [
        {
          "indexed": false,
          "internalType": "uint256",
          "name": "_tokenId",
          "type": "uint256"
        }
      ],
      "name": "MetadataUpdate",
      "type": "event"
    },
    {
      "inputs": [
        {
          "internalType": "uint256",
          "name": "quantity_",
          "type": "uint256"
        }
      ],
      "name": "mint",
      "outputs": [],
      "stateMutability": "payable",
      "type": "function"
    },
    {
      "anonymous": false,
      "inputs": [
        {
          "indexed": true,
          "internalType": "address",
          "name": "previousOwner",
          "type": "address"
        },
        {
          "indexed": true,
          "internalType": "address",
          "name": "newOwner",
          "type": "address"
        }
      ],
      "name": "OwnershipTransferred",
      "type": "event"
    },
    {
      "inputs": [],
      "name": "renounceOwnership",
      "outputs": [],
      "stateMutability": "nonpayable",
      "type": "function"
    },
    {
      "inputs": [
        {
          "internalType": "address",
          "name": "to",
          "type": "address"
        },
        {
          "internalType": "string",
          "name": "uri",
          "type": "string"
        }
      ],
      "name": "safeMint",
      "outputs": [],
      "stateMutability": "nonpayable",
      "type": "function"
    },
    {
      "inputs": [
        {
          "internalType": "address",
          "name": "from",
          "type": "address"
        },
        {
          "internalType": "address",
          "name": "to",
          "type": "address"
        },
        {
          "internalType": "uint256",
          "name": "tokenId",
          "type": "uint256"
        }
      ],
      "name": "safeTransferFrom",
      "outputs": [],
      "stateMutability": "nonpayable",
      "type": "function"
    },
    {
      "inputs": [
        {
          "internalType": "address",
          "name": "from",
          "type": "address"
        },
        {
          "internalType": "address",
          "name": "to",
          "type": "address"
        },
        {
          "internalType": "uint256",
          "name": "tokenId",
          "type": "uint256"
        },
        {
          "internalType": "bytes",
          "name": "data",
          "type": "bytes"
        }
      ],
      "name": "safeTransferFrom",
      "outputs": [],
      "stateMutability": "nonpayable",
      "type": "function"
    },
    {
      "inputs": [
        {
          "internalType": "address",
          "name": "operator",
          "type": "address"
        },
        {
          "internalType": "bool",
          "name": "approved",
          "type": "bool"
        }
      ],
      "name": "setApprovalForAll",
      "outputs": [],
      "stateMutability": "nonpayable",
      "type": "function"
    },
    {
      "anonymous": false,
      "inputs": [
        {
          "indexed": true,
          "internalType": "address",
          "name": "from",
          "type": "address"
        },
        {
          "indexed": true,
          "internalType": "address",
          "name": "to",
          "type": "address"
        },
        {
          "indexed": true,
          "internalType": "uint256",
          "name": "tokenId",
          "type": "uint256"
        }
      ],
      "name": "Transfer",
      "type": "event"
    },
    {
      "inputs": [
        {
          "internalType": "address",
          "name": "from",
          "type": "address"
        },
        {
          "internalType": "address",
          "name": "to",
          "type": "address"
        },
        {
          "internalType": "uint256",
          "name": "tokenId",
          "type": "uint256"
        }
      ],
      "name": "transferFrom",
      "outputs": [],
      "stateMutability": "nonpayable",
      "type": "function"
    },
    {
      "inputs": [
        {
          "internalType": "address",
          "name": "newOwner",
          "type": "address"
        }
      ],
      "name": "transferOwnership",
      "outputs": [],
      "stateMutability": "nonpayable",
      "type": "function"
    },
    {
      "inputs": [],
      "name": "withdraw",
      "outputs": [],
      "stateMutability": "payable",
      "type": "function"
    },
    {
      "inputs": [
        {
          "internalType": "address",
          "name": "owner",
          "type": "address"
        }
      ],
      "name": "balanceOf",
      "outputs": [
        {
          "internalType": "uint256",
          "name": "",
          "type": "uint256"
        }
      ],
      "stateMutability": "view",
      "type": "function"
    },
    {
      "inputs": [],
      "name": "currSupply",
      "outputs": [
        {
          "internalType": "uint256",
          "name": "",
          "type": "uint256"
        }
      ],
      "stateMutability": "view",
      "type": "function"
    },
    {
      "inputs": [
        {
          "internalType": "uint256",
          "name": "tokenId",
          "type": "uint256"
        }
      ],
      "name": "getApproved",
      "outputs": [
        {
          "internalType": "address",
          "name": "",
          "type": "address"
        }
      ],
      "stateMutability": "view",
      "type": "function"
    },
    {
      "inputs": [
        {
          "internalType": "address",
          "name": "owner",
          "type": "address"
        }
      ],
      "name": "getOwnedMints",
      "outputs": [
        {
          "internalType": "string[]",
          "name": "",
          "type": "string[]"
        }
      ],
      "stateMutability": "view",
      "type": "function"
    },
    {
      "inputs": [
        {
          "internalType": "address",
          "name": "owner",
          "type": "address"
        },
        {
          "internalType": "address",
          "name": "operator",
          "type": "address"
        }
      ],
      "name": "isApprovedForAll",
      "outputs": [
        {
          "internalType": "bool",
          "name": "",
          "type": "bool"
        }
      ],
      "stateMutability": "view",
      "type": "function"
    },
    {
      "inputs": [
        {
          "internalType": "string",
          "name": "uri",
          "type": "string"
        }
      ],
      "name": "isContentOwned",
      "outputs": [
        {
          "internalType": "bool",
          "name": "",
          "type": "bool"
        }
      ],
      "stateMutability": "view",
      "type": "function"
    },
    {
      "inputs": [],
      "name": "maxPerWallet",
      "outputs": [
        {
          "internalType": "uint256",
          "name": "",
          "type": "uint256"
        }
      ],
      "stateMutability": "view",
      "type": "function"
    },
    {
      "inputs": [],
      "name": "maxSupply",
      "outputs": [
        {
          "internalType": "uint256",
          "name": "",
          "type": "uint256"
        }
      ],
      "stateMutability": "view",
      "type": "function"
    },
    {
      "inputs": [],
      "name": "mintPrice",
      "outputs": [
        {
          "internalType": "uint256",
          "name": "",
          "type": "uint256"
        }
      ],
      "stateMutability": "view",
      "type": "function"
    },
    {
      "inputs": [
        {
          "internalType": "string",
          "name": "",
          "type": "string"
        }
      ],
      "name": "mints",
      "outputs": [
        {
          "internalType": "string",
          "name": "mintId",
          "type": "string"
        },
        {
          "internalType": "address",
          "name": "owner",
          "type": "address"
        }
      ],
      "stateMutability": "view",
      "type": "function"
    },
    {
      "inputs": [
        {
          "internalType": "address",
          "name": "",
          "type": "address"
        },
        {
          "internalType": "uint256",
          "name": "",
          "type": "uint256"
        }
      ],
      "name": "mintsByOwner",
      "outputs": [
        {
          "internalType": "string",
          "name": "",
          "type": "string"
        }
      ],
      "stateMutability": "view",
      "type": "function"
    },
    {
      "inputs": [],
      "name": "name",
      "outputs": [
        {
          "internalType": "string",
          "name": "",
          "type": "string"
        }
      ],
      "stateMutability": "view",
      "type": "function"
    },
    {
      "inputs": [],
      "name": "owner",
      "outputs": [
        {
          "internalType": "address",
          "name": "",
          "type": "address"
        }
      ],
      "stateMutability": "view",
      "type": "function"
    },
    {
      "inputs": [
        {
          "internalType": "uint256",
          "name": "tokenId",
          "type": "uint256"
        }
      ],
      "name": "ownerOf",
      "outputs": [
        {
          "internalType": "address",
          "name": "",
          "type": "address"
        }
      ],
      "stateMutability": "view",
      "type": "function"
    },
    {
      "inputs": [
        {
          "internalType": "bytes4",
          "name": "interfaceId",
          "type": "bytes4"
        }
      ],
      "name": "supportsInterface",
      "outputs": [
        {
          "internalType": "bool",
          "name": "",
          "type": "bool"
        }
      ],
      "stateMutability": "view",
      "type": "function"
    },
    {
      "inputs": [],
      "name": "symbol",
      "outputs": [
        {
          "internalType": "string",
          "name": "",
          "type": "string"
        }
      ],
      "stateMutability": "view",
      "type": "function"
    },
    {
      "inputs": [
        {
          "internalType": "uint256",
          "name": "tokenId",
          "type": "uint256"
        }
      ],
      "name": "tokenURI",
      "outputs": [
        {
          "internalType": "string",
          "name": "",
          "type": "string"
        }
      ],
      "stateMutability": "view",
      "type": "function"
    }
  ],
  "bytecode": "0x60806040523480156200001157600080fd5b506040518060400160405280600981526020017f506978656c5061777300000000000000000000000000000000000000000000008152506040518060400160405280600381526020017f505057000000000000000000000000000000000000000000000000000000000081525081600090816200008f919062000463565b508060019081620000a1919062000463565b505050620000c4620000b86200011b60201b60201c565b6200012360201b60201c565b6040518060600160405280602e8152602001620042ce602e913960089081620000ee919062000463565b5066b1a2bc2ec500006009819055506001600a819055506032600b819055506005600c819055506200054a565b600033905090565b6000600760009054906101000a900473ffffffffffffffffffffffffffffffffffffffff16905081600760006101000a81548173ffffffffffffffffffffffffffffffffffffffff021916908373ffffffffffffffffffffffffffffffffffffffff1602179055508173ffffffffffffffffffffffffffffffffffffffff168173ffffffffffffffffffffffffffffffffffffffff167f8be0079c531659141344cd1fd0a4f28419497f9722a3daafe3b4186f6b6457e060405160405180910390a35050565b600081519050919050565b7f4e487b7100000000000000000000000000000000000000000000000000000000600052604160045260246000fd5b7f4e487b7100000000000000000000000000000000000000000000000000000000600052602260045260246000fd5b600060028204905060018216806200026b57607f821691505b60208210810362000281576200028062000223565b5b50919050565b60008190508160005260206000209050919050565b60006020601f8301049050919050565b600082821b905092915050565b600060088302620002eb7fffffffffffffffffffffffffffffffffffffffffffffffffffffffffffffffff82620002ac565b620002f78683620002ac565b95508019841693508086168417925050509392505050565b6000819050919050565b6000819050919050565b6000620003446200033e62000338846200030f565b62000319565b6200030f565b9050919050565b6000819050919050565b620003608362000323565b620003786200036f826200034b565b848454620002b9565b825550505050565b600090565b6200038f62000380565b6200039c81848462000355565b505050565b5b81811015620003c457620003b860008262000385565b600181019050620003a2565b5050565b601f8211156200041357620003dd8162000287565b620003e8846200029c565b81016020851015620003f8578190505b6200041062000407856200029c565b830182620003a1565b50505b505050565b600082821c905092915050565b6000620004386000198460080262000418565b1980831691505092915050565b600062000453838362000425565b9150826002028217905092915050565b6200046e82620001e9565b67ffffffffffffffff8111156200048a5762000489620001f4565b5b62000496825462000252565b620004a3828285620003c8565b600060209050601f831160018114620004db5760008415620004c6578287015190505b620004d2858262000445565b86555062000542565b601f198416620004eb8662000287565b60005b828110156200051557848901518255600182019150602085019450602081019050620004ee565b8683101562000535578489015162000531601f89168262000425565b8355505b6001600288020188555050505b505050505050565b613d74806200055a6000396000f3fe6080604052600436106101815760003560e01c806370a08231116100d1578063a22cb4651161008a578063d204c45e11610064578063d204c45e146105ae578063d5abeb01146105d7578063e985e9c514610602578063f2fde38b1461063f57610181565b8063a22cb4651461051f578063b88d4fde14610548578063c87b56dd1461057157610181565b806370a082311461041c578063715018a6146104595780638da5cb5b1461047057806395d89b411461049b5780639f1cabc6146104c6578063a0712d681461050357610181565b806342842e0e1161013e578063494a658911610118578063494a65891461034b5780635762ac59146103895780636352211e146103b45780636817c76c146103f157610181565b806342842e0e146102ba578063453c2310146102e3578063482f10a21461030e57610181565b806301ffc9a71461018657806306fdde03146101c3578063081812fc146101ee578063095ea7b31461022b57806320e3ea9c1461025457806323b872dd14610291575b600080fd5b34801561019257600080fd5b506101ad60048036038101906101a891906125b5565b610668565b6040516101ba91906125fd565b60405180910390f35b3480156101cf57600080fd5b506101d861074a565b6040516101e591906126a8565b60405180910390f35b3480156101fa57600080fd5b5061021560048036038101906102109190612700565b6107dc565b604051610222919061276e565b60405180910390f35b34801561023757600080fd5b50610252600480360381019061024d91906127b5565b610822565b005b34801561026057600080fd5b5061027b600480360381019061027691906127b5565b610939565b60405161028891906126a8565b60405180910390f35b34801561029d57600080fd5b506102b860048036038101906102b391906127f5565b6109f2565b005b3480156102c657600080fd5b506102e160048036038101906102dc91906127f5565b610a52565b005b3480156102ef57600080fd5b506102f8610a72565b6040516103059190612857565b60405180910390f35b34801561031a57600080fd5b5061033560048036038101906103309190612872565b610a78565b60405161034291906129ab565b60405180910390f35b34801561035757600080fd5b50610372600480360381019061036d9190612b02565b610b90565b604051610380929190612b4b565b60405180910390f35b34801561039557600080fd5b5061039e610c72565b6040516103ab9190612857565b60405180910390f35b3480156103c057600080fd5b506103db60048036038101906103d69190612700565b610c78565b6040516103e8919061276e565b60405180910390f35b3480156103fd57600080fd5b50610406610cfe565b6040516104139190612857565b60405180910390f35b34801561042857600080fd5b50610443600480360381019061043e9190612872565b610d04565b6040516104509190612857565b60405180910390f35b34801561046557600080fd5b5061046e610dbb565b005b34801561047c57600080fd5b50610485610dcf565b604051610492919061276e565b60405180910390f35b3480156104a757600080fd5b506104b0610df9565b6040516104bd91906126a8565b60405180910390f35b3480156104d257600080fd5b506104ed60048036038101906104e89190612b02565b610e8b565b6040516104fa91906125fd565b60405180910390f35b61051d60048036038101906105189190612700565b610ec6565b005b34801561052b57600080fd5b5061054660048036038101906105419190612ba7565b611243565b005b34801561055457600080fd5b5061056f600480360381019061056a9190612c88565b611259565b005b34801561057d57600080fd5b5061059860048036038101906105939190612700565b6112bb565b6040516105a591906126a8565b60405180910390f35b3480156105ba57600080fd5b506105d560048036038101906105d09190612d0b565b6112cd565b005b3480156105e357600080fd5b506105ec61130d565b6040516105f99190612857565b60405180910390f35b34801561060e57600080fd5b5061062960048036038101906106249190612d67565b611313565b60405161063691906125fd565b60405180910390f35b34801561064b57600080fd5b5061066660048036038101906106619190612872565b6113a7565b005b60007f80ac58cd000000000000000000000000000000000000000000000000000000007bffffffffffffffffffffffffffffffffffffffffffffffffffffffff1916827bffffffffffffffffffffffffffffffffffffffffffffffffffffffff1916148061073357507f5b5e139f000000000000000000000000000000000000000000000000000000007bffffffffffffffffffffffffffffffffffffffffffffffffffffffff1916827bffffffffffffffffffffffffffffffffffffffffffffffffffffffff1916145b8061074357506107428261142a565b5b9050919050565b60606000805461075990612dd6565b80601f016020809104026020016040519081016040528092919081815260200182805461078590612dd6565b80156107d25780601f106107a7576101008083540402835291602001916107d2565b820191906000526020600020905b8154815290600101906020018083116107b557829003601f168201915b5050505050905090565b60006107e782611494565b6004600083815260200190815260200160002060009054906101000a900473ffffffffffffffffffffffffffffffffffffffff169050919050565b600061082d82610c78565b90508073ffffffffffffffffffffffffffffffffffffffff168373ffffffffffffffffffffffffffffffffffffffff160361089d576040517f08c379a000000000000000000000000000000000000000000000000000000000815260040161089490612e79565b60405180910390fd5b8073ffffffffffffffffffffffffffffffffffffffff166108bc6114df565b73ffffffffffffffffffffffffffffffffffffffff1614806108eb57506108ea816108e56114df565b611313565b5b61092a576040517f08c379a000000000000000000000000000000000000000000000000000000000815260040161092190612f0b565b60405180910390fd5b61093483836114e7565b505050565b600f602052816000526040600020818154811061095557600080fd5b9060005260206000200160009150915050805461097190612dd6565b80601f016020809104026020016040519081016040528092919081815260200182805461099d90612dd6565b80156109ea5780601f106109bf576101008083540402835291602001916109ea565b820191906000526020600020905b8154815290600101906020018083116109cd57829003601f168201915b505050505081565b610a036109fd6114df565b826115a0565b610a42576040517f08c379a0000000000000000000000000000000000000000000000000000000008152600401610a3990612f9d565b60405180910390fd5b610a4d838383611635565b505050565b610a6d83838360405180602001604052806000815250611259565b505050565b600c5481565b6060600f60008373ffffffffffffffffffffffffffffffffffffffff1673ffffffffffffffffffffffffffffffffffffffff168152602001908152602001600020805480602002602001604051908101604052809291908181526020016000905b82821015610b85578382906000526020600020018054610af890612dd6565b80601f0160208091040260200160405190810160405280929190818152602001828054610b2490612dd6565b8015610b715780601f10610b4657610100808354040283529160200191610b71565b820191906000526020600020905b815481529060010190602001808311610b5457829003601f168201915b505050505081526020019060010190610ad9565b505050509050919050565b600e81805160208101820180518482526020830160208501208183528095505050505050600091509050806000018054610bc990612dd6565b80601f0160208091040260200160405190810160405280929190818152602001828054610bf590612dd6565b8015610c425780601f10610c1757610100808354040283529160200191610c42565b820191906000526020600020905b815481529060010190602001808311610c2557829003601f168201915b5050505050908060010160009054906101000a900473ffffffffffffffffffffffffffffffffffffffff16905082565b600a5481565b600080610c848361192e565b9050600073ffffffffffffffffffffffffffffffffffffffff168173ffffffffffffffffffffffffffffffffffffffff1603610cf5576040517f08c379a0000000000000000000000000000000000000000000000000000000008152600401610cec90613009565b60405180910390fd5b80915050919050565b60095481565b60008073ffffffffffffffffffffffffffffffffffffffff168273ffffffffffffffffffffffffffffffffffffffff1603610d74576040517f08c379a0000000000000000000000000000000000000000000000000000000008152600401610d6b9061309b565b60405180910390fd5b600360008373ffffffffffffffffffffffffffffffffffffffff1673ffffffffffffffffffffffffffffffffffffffff168152602001908152602001600020549050919050565b610dc361196b565b610dcd60006119e9565b565b6000600760009054906101000a900473ffffffffffffffffffffffffffffffffffffffff16905090565b606060018054610e0890612dd6565b80601f0160208091040260200160405190810160405280929190818152602001828054610e3490612dd6565b8015610e815780601f10610e5657610100808354040283529160200191610e81565b820191906000526020600020905b815481529060010190602001808311610e6457829003601f168201915b5050505050905090565b60006001600d83604051610e9f91906130f7565b908152602001604051809103902060009054906101000a900460ff1660ff16149050919050565b80600954610ed4919061313d565b3414610f15576040517f08c379a0000000000000000000000000000000000000000000000000000000008152600401610f0c906131cb565b60405180910390fd5b600b5481600a54610f2691906131eb565b1115610f67576040517f08c379a0000000000000000000000000000000000000000000000000000000008152600401610f5e9061326b565b60405180910390fd5b600c5481600f60003373ffffffffffffffffffffffffffffffffffffffff1673ffffffffffffffffffffffffffffffffffffffff16815260200190815260200160002080549050610fb891906131eb565b1115610ff9576040517f08c379a0000000000000000000000000000000000000000000000000000000008152600401610ff0906132d7565b60405180910390fd5b60005b8181101561123f576000600a5490506000600861101883611aaf565b604051602001611029929190613427565b60405160208183030381529060405290506001600d8260405161104c91906130f7565b908152602001604051809103902060009054906101000a900460ff1660ff16036110ab576040517f08c379a00000000000000000000000000000000000000000000000000000000081526004016110a2906134ad565b60405180910390fd5b600a60008154809291906110be906134cd565b91905055506110cd3383611b7d565b6110d78282611d9a565b6001600d826040516110e991906130f7565b908152602001604051809103902060006101000a81548160ff021916908360ff16021790555060405180604001604052808281526020013373ffffffffffffffffffffffffffffffffffffffff16815250600e8260405161114a91906130f7565b9081526020016040518091039020600082015181600001908161116d91906136ac565b5060208201518160010160006101000a81548173ffffffffffffffffffffffffffffffffffffffff021916908373ffffffffffffffffffffffffffffffffffffffff160217905550905050600f60003373ffffffffffffffffffffffffffffffffffffffff1673ffffffffffffffffffffffffffffffffffffffff1681526020019081526020016000208190806001815401808255809150506001900390600052602060002001600090919091909150908161122991906136ac565b5050508080611237906134cd565b915050610ffc565b5050565b61125561124e6114df565b8383611e07565b5050565b61126a6112646114df565b836115a0565b6112a9576040517f08c379a00000000000000000000000000000000000000000000000000000000081526004016112a090612f9d565b60405180910390fd5b6112b584848484611f73565b50505050565b60606112c682611fcf565b9050919050565b6112d561196b565b6000600a549050600a60008154809291906112ef906134cd565b91905055506112fe83826120e1565b6113088183611d9a565b505050565b600b5481565b6000600560008473ffffffffffffffffffffffffffffffffffffffff1673ffffffffffffffffffffffffffffffffffffffff16815260200190815260200160002060008373ffffffffffffffffffffffffffffffffffffffff1673ffffffffffffffffffffffffffffffffffffffff16815260200190815260200160002060009054906101000a900460ff16905092915050565b6113af61196b565b600073ffffffffffffffffffffffffffffffffffffffff168173ffffffffffffffffffffffffffffffffffffffff160361141e576040517f08c379a0000000000000000000000000000000000000000000000000000000008152600401611415906137f0565b60405180910390fd5b611427816119e9565b50565b60007f01ffc9a7000000000000000000000000000000000000000000000000000000007bffffffffffffffffffffffffffffffffffffffffffffffffffffffff1916827bffffffffffffffffffffffffffffffffffffffffffffffffffffffff1916149050919050565b61149d816120ff565b6114dc576040517f08c379a00000000000000000000000000000000000000000000000000000000081526004016114d390613009565b60405180910390fd5b50565b600033905090565b816004600083815260200190815260200160002060006101000a81548173ffffffffffffffffffffffffffffffffffffffff021916908373ffffffffffffffffffffffffffffffffffffffff160217905550808273ffffffffffffffffffffffffffffffffffffffff1661155a83610c78565b73ffffffffffffffffffffffffffffffffffffffff167f8c5be1e5ebec7d5bd14f71427d1e84f3dd0314c0f7b2291e5b200ac8c7c3b92560405160405180910390a45050565b6000806115ac83610c78565b90508073ffffffffffffffffffffffffffffffffffffffff168473ffffffffffffffffffffffffffffffffffffffff1614806115ee57506115ed8185611313565b5b8061162c57508373ffffffffffffffffffffffffffffffffffffffff16611614846107dc565b73ffffffffffffffffffffffffffffffffffffffff16145b91505092915050565b8273ffffffffffffffffffffffffffffffffffffffff1661165582610c78565b73ffffffffffffffffffffffffffffffffffffffff16146116ab576040517f08c379a00000000000000000000000000000000000000000000000000000000081526004016116a290613882565b60405180910390fd5b600073ffffffffffffffffffffffffffffffffffffffff168273ffffffffffffffffffffffffffffffffffffffff160361171a576040517f08c379a000000000000000000000000000000000000000000000000000000000815260040161171190613914565b60405180910390fd5b6117278383836001612140565b8273ffffffffffffffffffffffffffffffffffffffff1661174782610c78565b73ffffffffffffffffffffffffffffffffffffffff161461179d576040517f08c379a000000000000000000000000000000000000000000000000000000000815260040161179490613882565b60405180910390fd5b6004600082815260200190815260200160002060006101000a81549073ffffffffffffffffffffffffffffffffffffffff02191690556001600360008573ffffffffffffffffffffffffffffffffffffffff1673ffffffffffffffffffffffffffffffffffffffff168152602001908152602001600020600082825403925050819055506001600360008473ffffffffffffffffffffffffffffffffffffffff1673ffffffffffffffffffffffffffffffffffffffff16815260200190815260200160002060008282540192505081905550816002600083815260200190815260200160002060006101000a81548173ffffffffffffffffffffffffffffffffffffffff021916908373ffffffffffffffffffffffffffffffffffffffff160217905550808273ffffffffffffffffffffffffffffffffffffffff168473ffffffffffffffffffffffffffffffffffffffff167fddf252ad1be2c89b69c2b068fc378daa952ba7f163c4a11628f55a4df523b3ef60405160405180910390a46119298383836001612146565b505050565b60006002600083815260200190815260200160002060009054906101000a900473ffffffffffffffffffffffffffffffffffffffff169050919050565b6119736114df565b73ffffffffffffffffffffffffffffffffffffffff16611991610dcf565b73ffffffffffffffffffffffffffffffffffffffff16146119e7576040517f08c379a00000000000000000000000000000000000000000000000000000000081526004016119de90613980565b60405180910390fd5b565b6000600760009054906101000a900473ffffffffffffffffffffffffffffffffffffffff16905081600760006101000a81548173ffffffffffffffffffffffffffffffffffffffff021916908373ffffffffffffffffffffffffffffffffffffffff1602179055508173ffffffffffffffffffffffffffffffffffffffff168173ffffffffffffffffffffffffffffffffffffffff167f8be0079c531659141344cd1fd0a4f28419497f9722a3daafe3b4186f6b6457e060405160405180910390a35050565b606060006001611abe8461214c565b01905060008167ffffffffffffffff811115611add57611adc6129d7565b5b6040519080825280601f01601f191660200182016040528015611b0f5781602001600182028036833780820191505090505b509050600082602001820190505b600115611b72578080600190039150507f3031323334353637383961626364656600000000000000000000000000000000600a86061a8153600a8581611b6657611b656139a0565b5b04945060008503611b1d575b819350505050919050565b600073ffffffffffffffffffffffffffffffffffffffff168273ffffffffffffffffffffffffffffffffffffffff1603611bec576040517f08c379a0000000000000000000000000000000000000000000000000000000008152600401611be390613a1b565b60405180910390fd5b611bf5816120ff565b15611c35576040517f08c379a0000000000000000000000000000000000000000000000000000000008152600401611c2c90613a87565b60405180910390fd5b611c43600083836001612140565b611c4c816120ff565b15611c8c576040517f08c379a0000000000000000000000000000000000000000000000000000000008152600401611c8390613a87565b60405180910390fd5b6001600360008473ffffffffffffffffffffffffffffffffffffffff1673ffffffffffffffffffffffffffffffffffffffff16815260200190815260200160002060008282540192505081905550816002600083815260200190815260200160002060006101000a81548173ffffffffffffffffffffffffffffffffffffffff021916908373ffffffffffffffffffffffffffffffffffffffff160217905550808273ffffffffffffffffffffffffffffffffffffffff16600073ffffffffffffffffffffffffffffffffffffffff167fddf252ad1be2c89b69c2b068fc378daa952ba7f163c4a11628f55a4df523b3ef60405160405180910390a4611d96600083836001612146565b5050565b611da3826120ff565b611de2576040517f08c379a0000000000000000000000000000000000000000000000000000000008152600401611dd990613b19565b60405180910390fd5b80600660008481526020019081526020016000209081611e0291906136ac565b505050565b8173ffffffffffffffffffffffffffffffffffffffff168373ffffffffffffffffffffffffffffffffffffffff1603611e75576040517f08c379a0000000000000000000000000000000000000000000000000000000008152600401611e6c90613b85565b60405180910390fd5b80600560008573ffffffffffffffffffffffffffffffffffffffff1673ffffffffffffffffffffffffffffffffffffffff16815260200190815260200160002060008473ffffffffffffffffffffffffffffffffffffffff1673ffffffffffffffffffffffffffffffffffffffff16815260200190815260200160002060006101000a81548160ff0219169083151502179055508173ffffffffffffffffffffffffffffffffffffffff168373ffffffffffffffffffffffffffffffffffffffff167f17307eab39ab6107e8899845ad3d59bd9653f200f220920489ca2b5937696c3183604051611f6691906125fd565b60405180910390a3505050565b611f7e848484611635565b611f8a8484848461229f565b611fc9576040517f08c379a0000000000000000000000000000000000000000000000000000000008152600401611fc090613c17565b60405180910390fd5b50505050565b6060611fda82611494565b6000600660008481526020019081526020016000208054611ffa90612dd6565b80601f016020809104026020016040519081016040528092919081815260200182805461202690612dd6565b80156120735780601f1061204857610100808354040283529160200191612073565b820191906000526020600020905b81548152906001019060200180831161205657829003601f168201915b505050505090506000612084612426565b905060008151036120995781925050506120dc565b6000825111156120ce5780826040516020016120b6929190613c37565b604051602081830303815290604052925050506120dc565b6120d784612463565b925050505b919050565b6120fb8282604051806020016040528060008152506124cb565b5050565b60008073ffffffffffffffffffffffffffffffffffffffff166121218361192e565b73ffffffffffffffffffffffffffffffffffffffff1614159050919050565b50505050565b50505050565b600080600090507a184f03e93ff9f4daa797ed6e38ed64bf6a1f01000000000000000083106121aa577a184f03e93ff9f4daa797ed6e38ed64bf6a1f01000000000000000083816121a05761219f6139a0565b5b0492506040810190505b6d04ee2d6d415b85acef810000000083106121e7576d04ee2d6d415b85acef810000000083816121dd576121dc6139a0565b5b0492506020810190505b662386f26fc10000831061221657662386f26fc10000838161220c5761220b6139a0565b5b0492506010810190505b6305f5e100831061223f576305f5e1008381612235576122346139a0565b5b0492506008810190505b612710831061226457612710838161225a576122596139a0565b5b0492506004810190505b60648310612287576064838161227d5761227c6139a0565b5b0492506002810190505b600a8310612296576001810190505b80915050919050565b60006122c08473ffffffffffffffffffffffffffffffffffffffff16612526565b15612419578373ffffffffffffffffffffffffffffffffffffffff1663150b7a026122e96114df565b8786866040518563ffffffff1660e01b815260040161230b9493929190613cb0565b6020604051808303816000875af192505050801561234757506040513d601f19601f820116820180604052508101906123449190613d11565b60015b6123c9573d8060008114612377576040519150601f19603f3d011682016040523d82523d6000602084013e61237c565b606091505b5060008151036123c1576040517f08c379a00000000000000000000000000000000000000000000000000000000081526004016123b890613c17565b60405180910390fd5b805181602001fd5b63150b7a0260e01b7bffffffffffffffffffffffffffffffffffffffffffffffffffffffff1916817bffffffffffffffffffffffffffffffffffffffffffffffffffffffff19161491505061241e565b600190505b949350505050565b60606040518060400160405280600781526020017f697066733a2f2f00000000000000000000000000000000000000000000000000815250905090565b606061246e82611494565b6000612478612426565b9050600081511161249857604051806020016040528060008152506124c3565b806124a284611aaf565b6040516020016124b3929190613c37565b6040516020818303038152906040525b915050919050565b6124d58383611b7d565b6124e2600084848461229f565b612521576040517f08c379a000000000000000000000000000000000000000000000000000000000815260040161251890613c17565b60405180910390fd5b505050565b6000808273ffffffffffffffffffffffffffffffffffffffff163b119050919050565b6000604051905090565b600080fd5b600080fd5b60007fffffffff0000000000000000000000000000000000000000000000000000000082169050919050565b6125928161255d565b811461259d57600080fd5b50565b6000813590506125af81612589565b92915050565b6000602082840312156125cb576125ca612553565b5b60006125d9848285016125a0565b91505092915050565b60008115159050919050565b6125f7816125e2565b82525050565b600060208201905061261260008301846125ee565b92915050565b600081519050919050565b600082825260208201905092915050565b60005b83811015612652578082015181840152602081019050612637565b60008484015250505050565b6000601f19601f8301169050919050565b600061267a82612618565b6126848185612623565b9350612694818560208601612634565b61269d8161265e565b840191505092915050565b600060208201905081810360008301526126c2818461266f565b905092915050565b6000819050919050565b6126dd816126ca565b81146126e857600080fd5b50565b6000813590506126fa816126d4565b92915050565b60006020828403121561271657612715612553565b5b6000612724848285016126eb565b91505092915050565b600073ffffffffffffffffffffffffffffffffffffffff82169050919050565b60006127588261272d565b9050919050565b6127688161274d565b82525050565b6000602082019050612783600083018461275f565b92915050565b6127928161274d565b811461279d57600080fd5b50565b6000813590506127af81612789565b92915050565b600080604083850312156127cc576127cb612553565b5b60006127da858286016127a0565b92505060206127eb858286016126eb565b9150509250929050565b60008060006060848603121561280e5761280d612553565b5b600061281c868287016127a0565b935050602061282d868287016127a0565b925050604061283e868287016126eb565b9150509250925092565b612851816126ca565b82525050565b600060208201905061286c6000830184612848565b92915050565b60006020828403121561288857612887612553565b5b6000612896848285016127a0565b91505092915050565b600081519050919050565b600082825260208201905092915050565b6000819050602082019050919050565b600082825260208201905092915050565b60006128e782612618565b6128f181856128cb565b9350612901818560208601612634565b61290a8161265e565b840191505092915050565b600061292183836128dc565b905092915050565b6000602082019050919050565b60006129418261289f565b61294b81856128aa565b93508360208202850161295d856128bb565b8060005b85811015612999578484038952815161297a8582612915565b945061298583612929565b925060208a01995050600181019050612961565b50829750879550505050505092915050565b600060208201905081810360008301526129c58184612936565b905092915050565b600080fd5b600080fd5b7f4e487b7100000000000000000000000000000000000000000000000000000000600052604160045260246000fd5b612a0f8261265e565b810181811067ffffffffffffffff82111715612a2e57612a2d6129d7565b5b80604052505050565b6000612a41612549565b9050612a4d8282612a06565b919050565b600067ffffffffffffffff821115612a6d57612a6c6129d7565b5b612a768261265e565b9050602081019050919050565b82818337600083830152505050565b6000612aa5612aa084612a52565b612a37565b905082815260208101848484011115612ac157612ac06129d2565b5b612acc848285612a83565b509392505050565b600082601f830112612ae957612ae86129cd565b5b8135612af9848260208601612a92565b91505092915050565b600060208284031215612b1857612b17612553565b5b600082013567ffffffffffffffff811115612b3657612b35612558565b5b612b4284828501612ad4565b91505092915050565b60006040820190508181036000830152612b65818561266f565b9050612b74602083018461275f565b9392505050565b612b84816125e2565b8114612b8f57600080fd5b50565b600081359050612ba181612b7b565b92915050565b60008060408385031215612bbe57612bbd612553565b5b6000612bcc858286016127a0565b9250506020612bdd85828601612b92565b9150509250929050565b600067ffffffffffffffff821115612c0257612c016129d7565b5b612c0b8261265e565b9050602081019050919050565b6000612c2b612c2684612be7565b612a37565b905082815260208101848484011115612c4757612c466129d2565b5b612c52848285612a83565b509392505050565b600082601f830112612c6f57612c6e6129cd565b5b8135612c7f848260208601612c18565b91505092915050565b60008060008060808587031215612ca257612ca1612553565b5b6000612cb0878288016127a0565b9450506020612cc1878288016127a0565b9350506040612cd2878288016126eb565b925050606085013567ffffffffffffffff811115612cf357612cf2612558565b5b612cff87828801612c5a565b91505092959194509250565b60008060408385031215612d2257612d21612553565b5b6000612d30858286016127a0565b925050602083013567ffffffffffffffff811115612d5157612d50612558565b5b612d5d85828601612ad4565b9150509250929050565b60008060408385031215612d7e57612d7d612553565b5b6000612d8c858286016127a0565b9250506020612d9d858286016127a0565b9150509250929050565b7f4e487b7100000000000000000000000000000000000000000000000000000000600052602260045260246000fd5b60006002820490506001821680612dee57607f821691505b602082108103612e0157612e00612da7565b5b50919050565b7f4552433732313a20617070726f76616c20746f2063757272656e74206f776e6560008201527f7200000000000000000000000000000000000000000000000000000000000000602082015250565b6000612e63602183612623565b9150612e6e82612e07565b604082019050919050565b60006020820190508181036000830152612e9281612e56565b9050919050565b7f4552433732313a20617070726f76652063616c6c6572206973206e6f7420746f60008201527f6b656e206f776e6572206f7220617070726f76656420666f7220616c6c000000602082015250565b6000612ef5603d83612623565b9150612f0082612e99565b604082019050919050565b60006020820190508181036000830152612f2481612ee8565b9050919050565b7f4552433732313a2063616c6c6572206973206e6f7420746f6b656e206f776e6560008201527f72206f7220617070726f76656400000000000000000000000000000000000000602082015250565b6000612f87602d83612623565b9150612f9282612f2b565b604082019050919050565b60006020820190508181036000830152612fb681612f7a565b9050919050565b7f4552433732313a20696e76616c696420746f6b656e2049440000000000000000600082015250565b6000612ff3601883612623565b9150612ffe82612fbd565b602082019050919050565b6000602082019050818103600083015261302281612fe6565b9050919050565b7f4552433732313a2061646472657373207a65726f206973206e6f74206120766160008201527f6c6964206f776e65720000000000000000000000000000000000000000000000602082015250565b6000613085602983612623565b915061309082613029565b604082019050919050565b600060208201905081810360008301526130b481613078565b9050919050565b600081905092915050565b60006130d182612618565b6130db81856130bb565b93506130eb818560208601612634565b80840191505092915050565b600061310382846130c6565b915081905092915050565b7f4e487b7100000000000000000000000000000000000000000000000000000000600052601160045260246000fd5b6000613148826126ca565b9150613153836126ca565b9250828202613161816126ca565b915082820484148315176131785761317761310e565b5b5092915050565b7f57726f6e67206d696e742076616c756500000000000000000000000000000000600082015250565b60006131b5601083612623565b91506131c08261317f565b602082019050919050565b600060208201905081810360008301526131e4816131a8565b9050919050565b60006131f6826126ca565b9150613201836126ca565b92508282019050808211156132195761321861310e565b5b92915050565b7f536f6c64206f7574210000000000000000000000000000000000000000000000600082015250565b6000613255600983612623565b91506132608261321f565b602082019050919050565b6000602082019050818103600083015261328481613248565b9050919050565b7f457863656564206d6178207065722077616c6c65740000000000000000000000600082015250565b60006132c1601583612623565b91506132cc8261328b565b602082019050919050565b600060208201905081810360008301526132f0816132b4565b9050919050565b60008190508160005260206000209050919050565b6000815461331981612dd6565b61332381866130bb565b9450600182166000811461333e576001811461335357613386565b60ff1983168652811515820286019350613386565b61335c856132f7565b60005b8381101561337e5781548189015260018201915060208101905061335f565b838801955050505b50505092915050565b7f2f00000000000000000000000000000000000000000000000000000000000000600082015250565b60006133c56001836130bb565b91506133d08261338f565b600182019050919050565b7f2e6a736f6e000000000000000000000000000000000000000000000000000000600082015250565b60006134116005836130bb565b915061341c826133db565b600582019050919050565b6000613433828561330c565b915061343e826133b8565b915061344a82846130c6565b915061345582613404565b91508190509392505050565b7f4e465420616c7265616479206d696e7465642100000000000000000000000000600082015250565b6000613497601383612623565b91506134a282613461565b602082019050919050565b600060208201905081810360008301526134c68161348a565b9050919050565b60006134d8826126ca565b91507fffffffffffffffffffffffffffffffffffffffffffffffffffffffffffffffff820361350a5761350961310e565b5b600182019050919050565b60006020601f8301049050919050565b600082821b905092915050565b6000600883026135627fffffffffffffffffffffffffffffffffffffffffffffffffffffffffffffffff82613525565b61356c8683613525565b95508019841693508086168417925050509392505050565b6000819050919050565b60006135a96135a461359f846126ca565b613584565b6126ca565b9050919050565b6000819050919050565b6135c38361358e565b6135d76135cf826135b0565b848454613532565b825550505050565b600090565b6135ec6135df565b6135f78184846135ba565b505050565b5b8181101561361b576136106000826135e4565b6001810190506135fd565b5050565b601f82111561366057613631816132f7565b61363a84613515565b81016020851015613649578190505b61365d61365585613515565b8301826135fc565b50505b505050565b600082821c905092915050565b600061368360001984600802613665565b1980831691505092915050565b600061369c8383613672565b9150826002028217905092915050565b6136b582612618565b67ffffffffffffffff8111156136ce576136cd6129d7565b5b6136d88254612dd6565b6136e382828561361f565b600060209050601f8311600181146137165760008415613704578287015190505b61370e8582613690565b865550613776565b601f198416613724866132f7565b60005b8281101561374c57848901518255600182019150602085019450602081019050613727565b868310156137695784890151613765601f891682613672565b8355505b6001600288020188555050505b505050505050565b7f4f776e61626c653a206e6577206f776e657220697320746865207a65726f206160008201527f6464726573730000000000000000000000000000000000000000000000000000602082015250565b60006137da602683612623565b91506137e58261377e565b604082019050919050565b60006020820190508181036000830152613809816137cd565b9050919050565b7f4552433732313a207472616e736665722066726f6d20696e636f72726563742060008201527f6f776e6572000000000000000000000000000000000000000000000000000000602082015250565b600061386c602583612623565b915061387782613810565b604082019050919050565b6000602082019050818103600083015261389b8161385f565b9050919050565b7f4552433732313a207472616e7366657220746f20746865207a65726f2061646460008201527f7265737300000000000000000000000000000000000000000000000000000000602082015250565b60006138fe602483612623565b9150613909826138a2565b604082019050919050565b6000602082019050818103600083015261392d816138f1565b9050919050565b7f4f776e61626c653a2063616c6c6572206973206e6f7420746865206f776e6572600082015250565b600061396a602083612623565b915061397582613934565b602082019050919050565b600060208201905081810360008301526139998161395d565b9050919050565b7f4e487b7100000000000000000000000000000000000000000000000000000000600052601260045260246000fd5b7f4552433732313a206d696e7420746f20746865207a65726f2061646472657373600082015250565b6000613a05602083612623565b9150613a10826139cf565b602082019050919050565b60006020820190508181036000830152613a34816139f8565b9050919050565b7f4552433732313a20746f6b656e20616c7265616479206d696e74656400000000600082015250565b6000613a71601c83612623565b9150613a7c82613a3b565b602082019050919050565b60006020820190508181036000830152613aa081613a64565b9050919050565b7f45524337323155524953746f726167653a2055524920736574206f66206e6f6e60008201527f6578697374656e7420746f6b656e000000000000000000000000000000000000602082015250565b6000613b03602e83612623565b9150613b0e82613aa7565b604082019050919050565b60006020820190508181036000830152613b3281613af6565b9050919050565b7f4552433732313a20617070726f766520746f2063616c6c657200000000000000600082015250565b6000613b6f601983612623565b9150613b7a82613b39565b602082019050919050565b60006020820190508181036000830152613b9e81613b62565b9050919050565b7f4552433732313a207472616e7366657220746f206e6f6e20455243373231526560008201527f63656976657220696d706c656d656e7465720000000000000000000000000000602082015250565b6000613c01603283612623565b9150613c0c82613ba5565b604082019050919050565b60006020820190508181036000830152613c3081613bf4565b9050919050565b6000613c4382856130c6565b9150613c4f82846130c6565b91508190509392505050565b600081519050919050565b600082825260208201905092915050565b6000613c8282613c5b565b613c8c8185613c66565b9350613c9c818560208601612634565b613ca58161265e565b840191505092915050565b6000608082019050613cc5600083018761275f565b613cd2602083018661275f565b613cdf6040830185612848565b8181036060830152613cf18184613c77565b905095945050505050565b600081519050613d0b81612589565b92915050565b600060208284031215613d2757613d26612553565b5b6000613d3584828501613cfc565b9150509291505056fea2646970667358221220d92c4cbbffdce3445b79bf2b0f02aeec08c2d892f1480fedd20883d28220180864736f6c63430008110033516d54326358466b47673572354b696962794c4a426e654a4e3268444c68657a67674d685a664238707a46585454",
  "linkReferences": {},
  "deployedLinkReferences": {}
}